{
	"Assignment 2/q9.sol": {
		"SimpleLedger": {
			"abi": [
				{
					"inputs": [
						{
							"internalType": "string",
							"name": "_description",
							"type": "string"
						},
						{
							"internalType": "uint256",
							"name": "_amount",
							"type": "uint256"
						}
					],
					"name": "addEntry",
					"outputs": [],
					"stateMutability": "nonpayable",
					"type": "function"
				},
				{
					"inputs": [
						{
							"internalType": "uint256",
							"name": "_index",
							"type": "uint256"
						}
					],
					"name": "getEntry",
					"outputs": [
						{
							"internalType": "string",
							"name": "",
							"type": "string"
						},
						{
							"internalType": "uint256",
							"name": "",
							"type": "uint256"
						}
					],
					"stateMutability": "view",
					"type": "function"
				},
				{
					"inputs": [
						{
							"internalType": "uint256",
							"name": "",
							"type": "uint256"
						}
					],
					"name": "ledger",
					"outputs": [
						{
							"internalType": "string",
							"name": "description",
							"type": "string"
						},
						{
							"internalType": "uint256",
							"name": "amount",
							"type": "uint256"
						}
					],
					"stateMutability": "view",
					"type": "function"
				}
			],
			"devdoc": {
				"kind": "dev",
				"methods": {},
				"version": 1
			},
			"evm": {
				"assembly": "    /* \"Assignment 2/q9.sol\":58:1570  contract SimpleLedger {... */\n  mstore(0x40, 0x80)\n  callvalue\n  dup1\n  iszero\n  tag_1\n  jumpi\n  0x00\n  dup1\n  revert\ntag_1:\n  pop\n  dataSize(sub_0)\n  dup1\n  dataOffset(sub_0)\n  0x00\n  codecopy\n  0x00\n  return\nstop\n\nsub_0: assembly {\n        /* \"Assignment 2/q9.sol\":58:1570  contract SimpleLedger {... */\n      mstore(0x40, 0x80)\n      callvalue\n      dup1\n      iszero\n      tag_1\n      jumpi\n      0x00\n      dup1\n      revert\n    tag_1:\n      pop\n      jumpi(tag_2, lt(calldatasize, 0x04))\n      shr(0xe0, calldataload(0x00))\n      dup1\n      0x10a7fd7b\n      eq\n      tag_3\n      jumpi\n      dup1\n      0x9bcba5dc\n      eq\n      tag_4\n      jumpi\n      dup1\n      0xbae78d7b\n      eq\n      tag_5\n      jumpi\n    tag_2:\n      0x00\n      dup1\n      revert\n        /* \"Assignment 2/q9.sol\":382:403  Entry[] public ledger */\n    tag_3:\n      tag_6\n      0x04\n      dup1\n      calldatasize\n      sub\n      dup2\n      add\n      swap1\n      tag_7\n      swap2\n      swap1\n      tag_8\n      jump\t// in\n    tag_7:\n      tag_9\n      jump\t// in\n    tag_6:\n      mload(0x40)\n      tag_10\n      swap3\n      swap2\n      swap1\n      tag_11\n      jump\t// in\n    tag_10:\n      mload(0x40)\n      dup1\n      swap2\n      sub\n      swap1\n      return\n        /* \"Assignment 2/q9.sol\":535:759  function addEntry(string memory _description, uint256 _amount) public {... */\n    tag_4:\n      tag_12\n      0x04\n      dup1\n      calldatasize\n      sub\n      dup2\n      add\n      swap1\n      tag_13\n      swap2\n      swap1\n      tag_14\n      jump\t// in\n    tag_13:\n      tag_15\n      jump\t// in\n    tag_12:\n      stop\n        /* \"Assignment 2/q9.sol\":927:1476  function getEntry(uint256 _index) public view returns (string memory, uint256) {... */\n    tag_5:\n      tag_16\n      0x04\n      dup1\n      calldatasize\n      sub\n      dup2\n      add\n      swap1\n      tag_17\n      swap2\n      swap1\n      tag_8\n      jump\t// in\n    tag_17:\n      tag_18\n      jump\t// in\n    tag_16:\n      mload(0x40)\n      tag_19\n      swap3\n      swap2\n      swap1\n      tag_11\n      jump\t// in\n    tag_19:\n      mload(0x40)\n      dup1\n      swap2\n      sub\n      swap1\n      return\n        /* \"Assignment 2/q9.sol\":382:403  Entry[] public ledger */\n    tag_9:\n      0x00\n      dup2\n      dup2\n      sload\n      dup2\n      lt\n      tag_20\n      jumpi\n      0x00\n      dup1\n      revert\n    tag_20:\n      swap1\n      0x00\n      mstore\n      keccak256(0x00, 0x20)\n      swap1\n      0x02\n      mul\n      add\n      0x00\n      swap2\n      pop\n      swap1\n      pop\n      dup1\n      0x00\n      add\n      dup1\n      sload\n      tag_22\n      swap1\n      tag_23\n      jump\t// in\n    tag_22:\n      dup1\n      0x1f\n      add\n      0x20\n      dup1\n      swap2\n      div\n      mul\n      0x20\n      add\n      mload(0x40)\n      swap1\n      dup2\n      add\n      0x40\n      mstore\n      dup1\n      swap3\n      swap2\n      swap1\n      dup2\n      dup2\n      mstore\n      0x20\n      add\n      dup3\n      dup1\n      sload\n      tag_24\n      swap1\n      tag_23\n      jump\t// in\n    tag_24:\n      dup1\n      iszero\n      tag_25\n      jumpi\n      dup1\n      0x1f\n      lt\n      tag_26\n      jumpi\n      0x0100\n      dup1\n      dup4\n      sload\n      div\n      mul\n      dup4\n      mstore\n      swap2\n      0x20\n      add\n      swap2\n      jump(tag_25)\n    tag_26:\n      dup3\n      add\n      swap2\n      swap1\n      0x00\n      mstore\n      keccak256(0x00, 0x20)\n      swap1\n    tag_27:\n      dup2\n      sload\n      dup2\n      mstore\n      swap1\n      0x01\n      add\n      swap1\n      0x20\n      add\n      dup1\n      dup4\n      gt\n      tag_27\n      jumpi\n      dup3\n      swap1\n      sub\n      0x1f\n      and\n      dup3\n      add\n      swap2\n    tag_25:\n      pop\n      pop\n      pop\n      pop\n      pop\n      swap1\n      dup1\n      0x01\n      add\n      sload\n      swap1\n      pop\n      dup3\n      jump\t// out\n        /* \"Assignment 2/q9.sol\":535:759  function addEntry(string memory _description, uint256 _amount) public {... */\n    tag_15:\n        /* \"Assignment 2/q9.sol\":659:665  ledger */\n      0x00\n        /* \"Assignment 2/q9.sol\":671:699  Entry(_description, _amount) */\n      mload(0x40)\n      dup1\n      0x40\n      add\n      0x40\n      mstore\n      dup1\n        /* \"Assignment 2/q9.sol\":677:689  _description */\n      dup5\n        /* \"Assignment 2/q9.sol\":671:699  Entry(_description, _amount) */\n      dup2\n      mstore\n      0x20\n      add\n        /* \"Assignment 2/q9.sol\":691:698  _amount */\n      dup4\n        /* \"Assignment 2/q9.sol\":671:699  Entry(_description, _amount) */\n      dup2\n      mstore\n      pop\n        /* \"Assignment 2/q9.sol\":659:700  ledger.push(Entry(_description, _amount)) */\n      swap1\n      dup1\n      0x01\n      dup2\n      sload\n      add\n      dup1\n      dup3\n      sstore\n      dup1\n      swap2\n      pop\n      pop\n      0x01\n      swap1\n      sub\n      swap1\n      0x00\n      mstore\n      keccak256(0x00, 0x20)\n      swap1\n      0x02\n      mul\n      add\n      0x00\n      swap1\n      swap2\n      swap1\n      swap2\n      swap1\n      swap2\n      pop\n      0x00\n      dup3\n      add\n      mload\n      dup2\n      0x00\n      add\n      swap1\n      dup1\n      mload\n      swap1\n      0x20\n      add\n      swap1\n      tag_30\n      swap3\n      swap2\n      swap1\n      tag_31\n      jump\t// in\n    tag_30:\n      pop\n      0x20\n      dup3\n      add\n      mload\n      dup2\n      0x01\n      add\n      sstore\n      pop\n      pop\n        /* \"Assignment 2/q9.sol\":535:759  function addEntry(string memory _description, uint256 _amount) public {... */\n      pop\n      pop\n      jump\t// out\n        /* \"Assignment 2/q9.sol\":927:1476  function getEntry(uint256 _index) public view returns (string memory, uint256) {... */\n    tag_18:\n        /* \"Assignment 2/q9.sol\":982:995  string memory */\n      0x60\n        /* \"Assignment 2/q9.sol\":997:1004  uint256 */\n      0x00\n        /* \"Assignment 2/q9.sol\":1097:1103  ledger */\n      dup1\n        /* \"Assignment 2/q9.sol\":1097:1110  ledger.length */\n      dup1\n      sload\n      swap1\n      pop\n        /* \"Assignment 2/q9.sol\":1088:1094  _index */\n      dup4\n        /* \"Assignment 2/q9.sol\":1088:1110  _index < ledger.length */\n      lt\n        /* \"Assignment 2/q9.sol\":1080:1134  require(_index < ledger.length, \"Index out of bounds\") */\n      tag_33\n      jumpi\n      mload(0x40)\n      0x08c379a000000000000000000000000000000000000000000000000000000000\n      dup2\n      mstore\n      0x04\n      add\n      tag_34\n      swap1\n      tag_35\n      jump\t// in\n    tag_34:\n      mload(0x40)\n      dup1\n      swap2\n      sub\n      swap1\n      revert\n    tag_33:\n        /* \"Assignment 2/q9.sol\":1216:1234  Entry memory entry */\n      0x00\n        /* \"Assignment 2/q9.sol\":1237:1243  ledger */\n      dup1\n        /* \"Assignment 2/q9.sol\":1244:1250  _index */\n      dup5\n        /* \"Assignment 2/q9.sol\":1237:1251  ledger[_index] */\n      dup2\n      sload\n      dup2\n      lt\n      tag_36\n      jumpi\n      mstore(0x00, 0x4e487b7100000000000000000000000000000000000000000000000000000000)\n      mstore(0x04, 0x32)\n      revert(0x00, 0x24)\n    tag_36:\n      swap1\n      0x00\n      mstore\n      keccak256(0x00, 0x20)\n      swap1\n      0x02\n      mul\n      add\n        /* \"Assignment 2/q9.sol\":1216:1251  Entry memory entry = ledger[_index] */\n      mload(0x40)\n      dup1\n      0x40\n      add\n      0x40\n      mstore\n      swap1\n      dup2\n      0x00\n      dup3\n      add\n      dup1\n      sload\n      tag_38\n      swap1\n      tag_23\n      jump\t// in\n    tag_38:\n      dup1\n      0x1f\n      add\n      0x20\n      dup1\n      swap2\n      div\n      mul\n      0x20\n      add\n      mload(0x40)\n      swap1\n      dup2\n      add\n      0x40\n      mstore\n      dup1\n      swap3\n      swap2\n      swap1\n      dup2\n      dup2\n      mstore\n      0x20\n      add\n      dup3\n      dup1\n      sload\n      tag_39\n      swap1\n      tag_23\n      jump\t// in\n    tag_39:\n      dup1\n      iszero\n      tag_40\n      jumpi\n      dup1\n      0x1f\n      lt\n      tag_41\n      jumpi\n      0x0100\n      dup1\n      dup4\n      sload\n      div\n      mul\n      dup4\n      mstore\n      swap2\n      0x20\n      add\n      swap2\n      jump(tag_40)\n    tag_41:\n      dup3\n      add\n      swap2\n      swap1\n      0x00\n      mstore\n      keccak256(0x00, 0x20)\n      swap1\n    tag_42:\n      dup2\n      sload\n      dup2\n      mstore\n      swap1\n      0x01\n      add\n      swap1\n      0x20\n      add\n      dup1\n      dup4\n      gt\n      tag_42\n      jumpi\n      dup3\n      swap1\n      sub\n      0x1f\n      and\n      dup3\n      add\n      swap2\n    tag_40:\n      pop\n      pop\n      pop\n      pop\n      pop\n      dup2\n      mstore\n      0x20\n      add\n      0x01\n      dup3\n      add\n      sload\n      dup2\n      mstore\n      pop\n      pop\n      swap1\n      pop\n        /* \"Assignment 2/q9.sol\":1349:1354  entry */\n      dup1\n        /* \"Assignment 2/q9.sol\":1349:1366  entry.description */\n      0x00\n      add\n      mload\n        /* \"Assignment 2/q9.sol\":1368:1373  entry */\n      dup2\n        /* \"Assignment 2/q9.sol\":1368:1380  entry.amount */\n      0x20\n      add\n      mload\n        /* \"Assignment 2/q9.sol\":1341:1381  return (entry.description, entry.amount) */\n      swap3\n      pop\n      swap3\n      pop\n      pop\n        /* \"Assignment 2/q9.sol\":927:1476  function getEntry(uint256 _index) public view returns (string memory, uint256) {... */\n      swap2\n      pop\n      swap2\n      jump\t// out\n    tag_31:\n      dup3\n      dup1\n      sload\n      tag_43\n      swap1\n      tag_23\n      jump\t// in\n    tag_43:\n      swap1\n      0x00\n      mstore\n      keccak256(0x00, 0x20)\n      swap1\n      0x1f\n      add\n      0x20\n      swap1\n      div\n      dup2\n      add\n      swap3\n      dup3\n      tag_45\n      jumpi\n      0x00\n      dup6\n      sstore\n      jump(tag_44)\n    tag_45:\n      dup3\n      0x1f\n      lt\n      tag_46\n      jumpi\n      dup1\n      mload\n      not(0xff)\n      and\n      dup4\n      dup1\n      add\n      or\n      dup6\n      sstore\n      jump(tag_44)\n    tag_46:\n      dup3\n      dup1\n      add\n      0x01\n      add\n      dup6\n      sstore\n      dup3\n      iszero\n      tag_44\n      jumpi\n      swap2\n      dup3\n      add\n    tag_47:\n      dup3\n      dup2\n      gt\n      iszero\n      tag_48\n      jumpi\n      dup3\n      mload\n      dup3\n      sstore\n      swap2\n      0x20\n      add\n      swap2\n      swap1\n      0x01\n      add\n      swap1\n      jump(tag_47)\n    tag_48:\n    tag_44:\n      pop\n      swap1\n      pop\n      tag_49\n      swap2\n      swap1\n      tag_50\n      jump\t// in\n    tag_49:\n      pop\n      swap1\n      jump\t// out\n    tag_50:\n    tag_51:\n      dup1\n      dup3\n      gt\n      iszero\n      tag_52\n      jumpi\n      0x00\n      dup2\n      0x00\n      swap1\n      sstore\n      pop\n      0x01\n      add\n      jump(tag_51)\n    tag_52:\n      pop\n      swap1\n      jump\t// out\n        /* \"#utility.yul\":7:351   */\n    tag_54:\n      0x00\n        /* \"#utility.yul\":110:175   */\n      tag_56\n        /* \"#utility.yul\":125:174   */\n      tag_57\n        /* \"#utility.yul\":167:173   */\n      dup5\n        /* \"#utility.yul\":125:174   */\n      tag_58\n      jump\t// in\n    tag_57:\n        /* \"#utility.yul\":110:175   */\n      tag_59\n      jump\t// in\n    tag_56:\n        /* \"#utility.yul\":101:175   */\n      swap1\n      pop\n        /* \"#utility.yul\":198:204   */\n      dup3\n        /* \"#utility.yul\":191:196   */\n      dup2\n        /* \"#utility.yul\":184:205   */\n      mstore\n        /* \"#utility.yul\":236:240   */\n      0x20\n        /* \"#utility.yul\":229:234   */\n      dup2\n        /* \"#utility.yul\":225:241   */\n      add\n        /* \"#utility.yul\":274:277   */\n      dup5\n        /* \"#utility.yul\":265:271   */\n      dup5\n        /* \"#utility.yul\":260:263   */\n      dup5\n        /* \"#utility.yul\":256:272   */\n      add\n        /* \"#utility.yul\":253:278   */\n      gt\n        /* \"#utility.yul\":250:252   */\n      iszero\n      tag_60\n      jumpi\n        /* \"#utility.yul\":291:292   */\n      0x00\n        /* \"#utility.yul\":288:289   */\n      dup1\n        /* \"#utility.yul\":281:293   */\n      revert\n        /* \"#utility.yul\":250:252   */\n    tag_60:\n        /* \"#utility.yul\":304:345   */\n      tag_61\n        /* \"#utility.yul\":338:344   */\n      dup5\n        /* \"#utility.yul\":333:336   */\n      dup3\n        /* \"#utility.yul\":328:331   */\n      dup6\n        /* \"#utility.yul\":304:345   */\n      tag_62\n      jump\t// in\n    tag_61:\n        /* \"#utility.yul\":91:351   */\n      pop\n      swap4\n      swap3\n      pop\n      pop\n      pop\n      jump\t// out\n        /* \"#utility.yul\":371:644   */\n    tag_63:\n      0x00\n        /* \"#utility.yul\":476:479   */\n      dup3\n        /* \"#utility.yul\":469:473   */\n      0x1f\n        /* \"#utility.yul\":461:467   */\n      dup4\n        /* \"#utility.yul\":457:474   */\n      add\n        /* \"#utility.yul\":453:480   */\n      slt\n        /* \"#utility.yul\":443:445   */\n      tag_65\n      jumpi\n        /* \"#utility.yul\":494:495   */\n      0x00\n        /* \"#utility.yul\":491:492   */\n      dup1\n        /* \"#utility.yul\":484:496   */\n      revert\n        /* \"#utility.yul\":443:445   */\n    tag_65:\n        /* \"#utility.yul\":534:540   */\n      dup2\n        /* \"#utility.yul\":521:541   */\n      calldataload\n        /* \"#utility.yul\":559:638   */\n      tag_66\n        /* \"#utility.yul\":634:637   */\n      dup5\n        /* \"#utility.yul\":626:632   */\n      dup3\n        /* \"#utility.yul\":619:623   */\n      0x20\n        /* \"#utility.yul\":611:617   */\n      dup7\n        /* \"#utility.yul\":607:624   */\n      add\n        /* \"#utility.yul\":559:638   */\n      tag_54\n      jump\t// in\n    tag_66:\n        /* \"#utility.yul\":550:638   */\n      swap2\n      pop\n        /* \"#utility.yul\":433:644   */\n      pop\n      swap3\n      swap2\n      pop\n      pop\n      jump\t// out\n        /* \"#utility.yul\":650:789   */\n    tag_67:\n      0x00\n        /* \"#utility.yul\":734:740   */\n      dup2\n        /* \"#utility.yul\":721:741   */\n      calldataload\n        /* \"#utility.yul\":712:741   */\n      swap1\n      pop\n        /* \"#utility.yul\":750:783   */\n      tag_69\n        /* \"#utility.yul\":777:782   */\n      dup2\n        /* \"#utility.yul\":750:783   */\n      tag_70\n      jump\t// in\n    tag_69:\n        /* \"#utility.yul\":702:789   */\n      swap3\n      swap2\n      pop\n      pop\n      jump\t// out\n        /* \"#utility.yul\":795:1315   */\n    tag_14:\n      0x00\n      dup1\n        /* \"#utility.yul\":930:932   */\n      0x40\n        /* \"#utility.yul\":918:927   */\n      dup4\n        /* \"#utility.yul\":909:916   */\n      dup6\n        /* \"#utility.yul\":905:928   */\n      sub\n        /* \"#utility.yul\":901:933   */\n      slt\n        /* \"#utility.yul\":898:900   */\n      iszero\n      tag_72\n      jumpi\n        /* \"#utility.yul\":946:947   */\n      0x00\n        /* \"#utility.yul\":943:944   */\n      dup1\n        /* \"#utility.yul\":936:948   */\n      revert\n        /* \"#utility.yul\":898:900   */\n    tag_72:\n        /* \"#utility.yul\":1017:1018   */\n      0x00\n        /* \"#utility.yul\":1006:1015   */\n      dup4\n        /* \"#utility.yul\":1002:1019   */\n      add\n        /* \"#utility.yul\":989:1020   */\n      calldataload\n        /* \"#utility.yul\":1047:1065   */\n      0xffffffffffffffff\n        /* \"#utility.yul\":1039:1045   */\n      dup2\n        /* \"#utility.yul\":1036:1066   */\n      gt\n        /* \"#utility.yul\":1033:1035   */\n      iszero\n      tag_73\n      jumpi\n        /* \"#utility.yul\":1079:1080   */\n      0x00\n        /* \"#utility.yul\":1076:1077   */\n      dup1\n        /* \"#utility.yul\":1069:1081   */\n      revert\n        /* \"#utility.yul\":1033:1035   */\n    tag_73:\n        /* \"#utility.yul\":1107:1170   */\n      tag_74\n        /* \"#utility.yul\":1162:1169   */\n      dup6\n        /* \"#utility.yul\":1153:1159   */\n      dup3\n        /* \"#utility.yul\":1142:1151   */\n      dup7\n        /* \"#utility.yul\":1138:1160   */\n      add\n        /* \"#utility.yul\":1107:1170   */\n      tag_63\n      jump\t// in\n    tag_74:\n        /* \"#utility.yul\":1097:1170   */\n      swap3\n      pop\n        /* \"#utility.yul\":960:1180   */\n      pop\n        /* \"#utility.yul\":1219:1221   */\n      0x20\n        /* \"#utility.yul\":1245:1298   */\n      tag_75\n        /* \"#utility.yul\":1290:1297   */\n      dup6\n        /* \"#utility.yul\":1281:1287   */\n      dup3\n        /* \"#utility.yul\":1270:1279   */\n      dup7\n        /* \"#utility.yul\":1266:1288   */\n      add\n        /* \"#utility.yul\":1245:1298   */\n      tag_67\n      jump\t// in\n    tag_75:\n        /* \"#utility.yul\":1235:1298   */\n      swap2\n      pop\n        /* \"#utility.yul\":1190:1308   */\n      pop\n        /* \"#utility.yul\":888:1315   */\n      swap3\n      pop\n      swap3\n      swap1\n      pop\n      jump\t// out\n        /* \"#utility.yul\":1321:1583   */\n    tag_8:\n      0x00\n        /* \"#utility.yul\":1429:1431   */\n      0x20\n        /* \"#utility.yul\":1417:1426   */\n      dup3\n        /* \"#utility.yul\":1408:1415   */\n      dup5\n        /* \"#utility.yul\":1404:1427   */\n      sub\n        /* \"#utility.yul\":1400:1432   */\n      slt\n        /* \"#utility.yul\":1397:1399   */\n      iszero\n      tag_77\n      jumpi\n        /* \"#utility.yul\":1445:1446   */\n      0x00\n        /* \"#utility.yul\":1442:1443   */\n      dup1\n        /* \"#utility.yul\":1435:1447   */\n      revert\n        /* \"#utility.yul\":1397:1399   */\n    tag_77:\n        /* \"#utility.yul\":1488:1489   */\n      0x00\n        /* \"#utility.yul\":1513:1566   */\n      tag_78\n        /* \"#utility.yul\":1558:1565   */\n      dup5\n        /* \"#utility.yul\":1549:1555   */\n      dup3\n        /* \"#utility.yul\":1538:1547   */\n      dup6\n        /* \"#utility.yul\":1534:1556   */\n      add\n        /* \"#utility.yul\":1513:1566   */\n      tag_67\n      jump\t// in\n    tag_78:\n        /* \"#utility.yul\":1503:1566   */\n      swap2\n      pop\n        /* \"#utility.yul\":1459:1576   */\n      pop\n        /* \"#utility.yul\":1387:1583   */\n      swap3\n      swap2\n      pop\n      pop\n      jump\t// out\n        /* \"#utility.yul\":1589:1953   */\n    tag_79:\n      0x00\n        /* \"#utility.yul\":1705:1744   */\n      tag_81\n        /* \"#utility.yul\":1738:1743   */\n      dup3\n        /* \"#utility.yul\":1705:1744   */\n      tag_82\n      jump\t// in\n    tag_81:\n        /* \"#utility.yul\":1760:1831   */\n      tag_83\n        /* \"#utility.yul\":1824:1830   */\n      dup2\n        /* \"#utility.yul\":1819:1822   */\n      dup6\n        /* \"#utility.yul\":1760:1831   */\n      tag_84\n      jump\t// in\n    tag_83:\n        /* \"#utility.yul\":1753:1831   */\n      swap4\n      pop\n        /* \"#utility.yul\":1840:1892   */\n      tag_85\n        /* \"#utility.yul\":1885:1891   */\n      dup2\n        /* \"#utility.yul\":1880:1883   */\n      dup6\n        /* \"#utility.yul\":1873:1877   */\n      0x20\n        /* \"#utility.yul\":1866:1871   */\n      dup7\n        /* \"#utility.yul\":1862:1878   */\n      add\n        /* \"#utility.yul\":1840:1892   */\n      tag_86\n      jump\t// in\n    tag_85:\n        /* \"#utility.yul\":1917:1946   */\n      tag_87\n        /* \"#utility.yul\":1939:1945   */\n      dup2\n        /* \"#utility.yul\":1917:1946   */\n      tag_88\n      jump\t// in\n    tag_87:\n        /* \"#utility.yul\":1912:1915   */\n      dup5\n        /* \"#utility.yul\":1908:1947   */\n      add\n        /* \"#utility.yul\":1901:1947   */\n      swap2\n      pop\n        /* \"#utility.yul\":1681:1953   */\n      pop\n      swap3\n      swap2\n      pop\n      pop\n      jump\t// out\n        /* \"#utility.yul\":1959:2276   */\n    tag_89:\n      0x00\n        /* \"#utility.yul\":2122:2189   */\n      tag_91\n        /* \"#utility.yul\":2186:2188   */\n      0x13\n        /* \"#utility.yul\":2181:2184   */\n      dup4\n        /* \"#utility.yul\":2122:2189   */\n      tag_84\n      jump\t// in\n    tag_91:\n        /* \"#utility.yul\":2115:2189   */\n      swap2\n      pop\n        /* \"#utility.yul\":2219:2240   */\n      0x496e646578206f7574206f6620626f756e647300000000000000000000000000\n        /* \"#utility.yul\":2215:2216   */\n      0x00\n        /* \"#utility.yul\":2210:2213   */\n      dup4\n        /* \"#utility.yul\":2206:2217   */\n      add\n        /* \"#utility.yul\":2199:2241   */\n      mstore\n        /* \"#utility.yul\":2267:2269   */\n      0x20\n        /* \"#utility.yul\":2262:2265   */\n      dup3\n        /* \"#utility.yul\":2258:2270   */\n      add\n        /* \"#utility.yul\":2251:2270   */\n      swap1\n      pop\n        /* \"#utility.yul\":2105:2276   */\n      swap2\n      swap1\n      pop\n      jump\t// out\n        /* \"#utility.yul\":2282:2400   */\n    tag_92:\n        /* \"#utility.yul\":2369:2393   */\n      tag_94\n        /* \"#utility.yul\":2387:2392   */\n      dup2\n        /* \"#utility.yul\":2369:2393   */\n      tag_95\n      jump\t// in\n    tag_94:\n        /* \"#utility.yul\":2364:2367   */\n      dup3\n        /* \"#utility.yul\":2357:2394   */\n      mstore\n        /* \"#utility.yul\":2347:2400   */\n      pop\n      pop\n      jump\t// out\n        /* \"#utility.yul\":2406:2829   */\n    tag_11:\n      0x00\n        /* \"#utility.yul\":2585:2587   */\n      0x40\n        /* \"#utility.yul\":2574:2583   */\n      dup3\n        /* \"#utility.yul\":2570:2588   */\n      add\n        /* \"#utility.yul\":2562:2588   */\n      swap1\n      pop\n        /* \"#utility.yul\":2634:2643   */\n      dup2\n        /* \"#utility.yul\":2628:2632   */\n      dup2\n        /* \"#utility.yul\":2624:2644   */\n      sub\n        /* \"#utility.yul\":2620:2621   */\n      0x00\n        /* \"#utility.yul\":2609:2618   */\n      dup4\n        /* \"#utility.yul\":2605:2622   */\n      add\n        /* \"#utility.yul\":2598:2645   */\n      mstore\n        /* \"#utility.yul\":2662:2740   */\n      tag_97\n        /* \"#utility.yul\":2735:2739   */\n      dup2\n        /* \"#utility.yul\":2726:2732   */\n      dup6\n        /* \"#utility.yul\":2662:2740   */\n      tag_79\n      jump\t// in\n    tag_97:\n        /* \"#utility.yul\":2654:2740   */\n      swap1\n      pop\n        /* \"#utility.yul\":2750:2822   */\n      tag_98\n        /* \"#utility.yul\":2818:2820   */\n      0x20\n        /* \"#utility.yul\":2807:2816   */\n      dup4\n        /* \"#utility.yul\":2803:2821   */\n      add\n        /* \"#utility.yul\":2794:2800   */\n      dup5\n        /* \"#utility.yul\":2750:2822   */\n      tag_92\n      jump\t// in\n    tag_98:\n        /* \"#utility.yul\":2552:2829   */\n      swap4\n      swap3\n      pop\n      pop\n      pop\n      jump\t// out\n        /* \"#utility.yul\":2835:3254   */\n    tag_35:\n      0x00\n        /* \"#utility.yul\":3039:3041   */\n      0x20\n        /* \"#utility.yul\":3028:3037   */\n      dup3\n        /* \"#utility.yul\":3024:3042   */\n      add\n        /* \"#utility.yul\":3016:3042   */\n      swap1\n      pop\n        /* \"#utility.yul\":3088:3097   */\n      dup2\n        /* \"#utility.yul\":3082:3086   */\n      dup2\n        /* \"#utility.yul\":3078:3098   */\n      sub\n        /* \"#utility.yul\":3074:3075   */\n      0x00\n        /* \"#utility.yul\":3063:3072   */\n      dup4\n        /* \"#utility.yul\":3059:3076   */\n      add\n        /* \"#utility.yul\":3052:3099   */\n      mstore\n        /* \"#utility.yul\":3116:3247   */\n      tag_100\n        /* \"#utility.yul\":3242:3246   */\n      dup2\n        /* \"#utility.yul\":3116:3247   */\n      tag_89\n      jump\t// in\n    tag_100:\n        /* \"#utility.yul\":3108:3247   */\n      swap1\n      pop\n        /* \"#utility.yul\":3006:3254   */\n      swap2\n      swap1\n      pop\n      jump\t// out\n        /* \"#utility.yul\":3260:3543   */\n    tag_59:\n      0x00\n        /* \"#utility.yul\":3326:3328   */\n      0x40\n        /* \"#utility.yul\":3320:3329   */\n      mload\n        /* \"#utility.yul\":3310:3329   */\n      swap1\n      pop\n        /* \"#utility.yul\":3368:3372   */\n      dup2\n        /* \"#utility.yul\":3360:3366   */\n      dup2\n        /* \"#utility.yul\":3356:3373   */\n      add\n        /* \"#utility.yul\":3475:3481   */\n      dup2\n        /* \"#utility.yul\":3463:3473   */\n      dup2\n        /* \"#utility.yul\":3460:3482   */\n      lt\n        /* \"#utility.yul\":3439:3457   */\n      0xffffffffffffffff\n        /* \"#utility.yul\":3427:3437   */\n      dup3\n        /* \"#utility.yul\":3424:3458   */\n      gt\n        /* \"#utility.yul\":3421:3483   */\n      or\n        /* \"#utility.yul\":3418:3420   */\n      iszero\n      tag_102\n      jumpi\n        /* \"#utility.yul\":3486:3504   */\n      tag_103\n      tag_104\n      jump\t// in\n    tag_103:\n        /* \"#utility.yul\":3418:3420   */\n    tag_102:\n        /* \"#utility.yul\":3526:3536   */\n      dup1\n        /* \"#utility.yul\":3522:3524   */\n      0x40\n        /* \"#utility.yul\":3515:3537   */\n      mstore\n        /* \"#utility.yul\":3300:3543   */\n      pop\n      swap2\n      swap1\n      pop\n      jump\t// out\n        /* \"#utility.yul\":3549:3881   */\n    tag_58:\n      0x00\n        /* \"#utility.yul\":3701:3719   */\n      0xffffffffffffffff\n        /* \"#utility.yul\":3693:3699   */\n      dup3\n        /* \"#utility.yul\":3690:3720   */\n      gt\n        /* \"#utility.yul\":3687:3689   */\n      iszero\n      tag_106\n      jumpi\n        /* \"#utility.yul\":3723:3741   */\n      tag_107\n      tag_104\n      jump\t// in\n    tag_107:\n        /* \"#utility.yul\":3687:3689   */\n    tag_106:\n        /* \"#utility.yul\":3808:3812   */\n      0x1f\n        /* \"#utility.yul\":3804:3813   */\n      not\n        /* \"#utility.yul\":3797:3801   */\n      0x1f\n        /* \"#utility.yul\":3789:3795   */\n      dup4\n        /* \"#utility.yul\":3785:3802   */\n      add\n        /* \"#utility.yul\":3781:3814   */\n      and\n        /* \"#utility.yul\":3773:3814   */\n      swap1\n      pop\n        /* \"#utility.yul\":3869:3873   */\n      0x20\n        /* \"#utility.yul\":3863:3867   */\n      dup2\n        /* \"#utility.yul\":3859:3874   */\n      add\n        /* \"#utility.yul\":3851:3874   */\n      swap1\n      pop\n        /* \"#utility.yul\":3616:3881   */\n      swap2\n      swap1\n      pop\n      jump\t// out\n        /* \"#utility.yul\":3887:3986   */\n    tag_82:\n      0x00\n        /* \"#utility.yul\":3973:3978   */\n      dup2\n        /* \"#utility.yul\":3967:3979   */\n      mload\n        /* \"#utility.yul\":3957:3979   */\n      swap1\n      pop\n        /* \"#utility.yul\":3946:3986   */\n      swap2\n      swap1\n      pop\n      jump\t// out\n        /* \"#utility.yul\":3992:4161   */\n    tag_84:\n      0x00\n        /* \"#utility.yul\":4110:4116   */\n      dup3\n        /* \"#utility.yul\":4105:4108   */\n      dup3\n        /* \"#utility.yul\":4098:4117   */\n      mstore\n        /* \"#utility.yul\":4150:4154   */\n      0x20\n        /* \"#utility.yul\":4145:4148   */\n      dup3\n        /* \"#utility.yul\":4141:4155   */\n      add\n        /* \"#utility.yul\":4126:4155   */\n      swap1\n      pop\n        /* \"#utility.yul\":4088:4161   */\n      swap3\n      swap2\n      pop\n      pop\n      jump\t// out\n        /* \"#utility.yul\":4167:4244   */\n    tag_95:\n      0x00\n        /* \"#utility.yul\":4233:4238   */\n      dup2\n        /* \"#utility.yul\":4222:4238   */\n      swap1\n      pop\n        /* \"#utility.yul\":4212:4244   */\n      swap2\n      swap1\n      pop\n      jump\t// out\n        /* \"#utility.yul\":4250:4404   */\n    tag_62:\n        /* \"#utility.yul\":4334:4340   */\n      dup3\n        /* \"#utility.yul\":4329:4332   */\n      dup2\n        /* \"#utility.yul\":4324:4327   */\n      dup4\n        /* \"#utility.yul\":4311:4341   */\n      calldatacopy\n        /* \"#utility.yul\":4396:4397   */\n      0x00\n        /* \"#utility.yul\":4387:4393   */\n      dup4\n        /* \"#utility.yul\":4382:4385   */\n      dup4\n        /* \"#utility.yul\":4378:4394   */\n      add\n        /* \"#utility.yul\":4371:4398   */\n      mstore\n        /* \"#utility.yul\":4301:4404   */\n      pop\n      pop\n      pop\n      jump\t// out\n        /* \"#utility.yul\":4410:4717   */\n    tag_86:\n        /* \"#utility.yul\":4478:4479   */\n      0x00\n        /* \"#utility.yul\":4488:4601   */\n    tag_113:\n        /* \"#utility.yul\":4502:4508   */\n      dup4\n        /* \"#utility.yul\":4499:4500   */\n      dup2\n        /* \"#utility.yul\":4496:4509   */\n      lt\n        /* \"#utility.yul\":4488:4601   */\n      iszero\n      tag_115\n      jumpi\n        /* \"#utility.yul\":4587:4588   */\n      dup1\n        /* \"#utility.yul\":4582:4585   */\n      dup3\n        /* \"#utility.yul\":4578:4589   */\n      add\n        /* \"#utility.yul\":4572:4590   */\n      mload\n        /* \"#utility.yul\":4568:4569   */\n      dup2\n        /* \"#utility.yul\":4563:4566   */\n      dup5\n        /* \"#utility.yul\":4559:4570   */\n      add\n        /* \"#utility.yul\":4552:4591   */\n      mstore\n        /* \"#utility.yul\":4524:4526   */\n      0x20\n        /* \"#utility.yul\":4521:4522   */\n      dup2\n        /* \"#utility.yul\":4517:4527   */\n      add\n        /* \"#utility.yul\":4512:4527   */\n      swap1\n      pop\n        /* \"#utility.yul\":4488:4601   */\n      jump(tag_113)\n    tag_115:\n        /* \"#utility.yul\":4619:4625   */\n      dup4\n        /* \"#utility.yul\":4616:4617   */\n      dup2\n        /* \"#utility.yul\":4613:4626   */\n      gt\n        /* \"#utility.yul\":4610:4612   */\n      iszero\n      tag_116\n      jumpi\n        /* \"#utility.yul\":4699:4700   */\n      0x00\n        /* \"#utility.yul\":4690:4696   */\n      dup5\n        /* \"#utility.yul\":4685:4688   */\n      dup5\n        /* \"#utility.yul\":4681:4697   */\n      add\n        /* \"#utility.yul\":4674:4701   */\n      mstore\n        /* \"#utility.yul\":4610:4612   */\n    tag_116:\n        /* \"#utility.yul\":4459:4717   */\n      pop\n      pop\n      pop\n      pop\n      jump\t// out\n        /* \"#utility.yul\":4723:5043   */\n    tag_23:\n      0x00\n        /* \"#utility.yul\":4804:4805   */\n      0x02\n        /* \"#utility.yul\":4798:4802   */\n      dup3\n        /* \"#utility.yul\":4794:4806   */\n      div\n        /* \"#utility.yul\":4784:4806   */\n      swap1\n      pop\n        /* \"#utility.yul\":4851:4852   */\n      0x01\n        /* \"#utility.yul\":4845:4849   */\n      dup3\n        /* \"#utility.yul\":4841:4853   */\n      and\n        /* \"#utility.yul\":4872:4890   */\n      dup1\n        /* \"#utility.yul\":4862:4864   */\n      tag_118\n      jumpi\n        /* \"#utility.yul\":4928:4932   */\n      0x7f\n        /* \"#utility.yul\":4920:4926   */\n      dup3\n        /* \"#utility.yul\":4916:4933   */\n      and\n        /* \"#utility.yul\":4906:4933   */\n      swap2\n      pop\n        /* \"#utility.yul\":4862:4864   */\n    tag_118:\n        /* \"#utility.yul\":4990:4992   */\n      0x20\n        /* \"#utility.yul\":4982:4988   */\n      dup3\n        /* \"#utility.yul\":4979:4993   */\n      lt\n        /* \"#utility.yul\":4959:4977   */\n      dup2\n        /* \"#utility.yul\":4956:4994   */\n      eq\n        /* \"#utility.yul\":4953:4955   */\n      iszero\n      tag_119\n      jumpi\n        /* \"#utility.yul\":5009:5027   */\n      tag_120\n      tag_121\n      jump\t// in\n    tag_120:\n        /* \"#utility.yul\":4953:4955   */\n    tag_119:\n        /* \"#utility.yul\":4774:5043   */\n      pop\n      swap2\n      swap1\n      pop\n      jump\t// out\n        /* \"#utility.yul\":5049:5229   */\n    tag_121:\n        /* \"#utility.yul\":5097:5174   */\n      0x4e487b7100000000000000000000000000000000000000000000000000000000\n        /* \"#utility.yul\":5094:5095   */\n      0x00\n        /* \"#utility.yul\":5087:5175   */\n      mstore\n        /* \"#utility.yul\":5194:5198   */\n      0x22\n        /* \"#utility.yul\":5191:5192   */\n      0x04\n        /* \"#utility.yul\":5184:5199   */\n      mstore\n        /* \"#utility.yul\":5218:5222   */\n      0x24\n        /* \"#utility.yul\":5215:5216   */\n      0x00\n        /* \"#utility.yul\":5208:5223   */\n      revert\n        /* \"#utility.yul\":5235:5415   */\n    tag_104:\n        /* \"#utility.yul\":5283:5360   */\n      0x4e487b7100000000000000000000000000000000000000000000000000000000\n        /* \"#utility.yul\":5280:5281   */\n      0x00\n        /* \"#utility.yul\":5273:5361   */\n      mstore\n        /* \"#utility.yul\":5380:5384   */\n      0x41\n        /* \"#utility.yul\":5377:5378   */\n      0x04\n        /* \"#utility.yul\":5370:5385   */\n      mstore\n        /* \"#utility.yul\":5404:5408   */\n      0x24\n        /* \"#utility.yul\":5401:5402   */\n      0x00\n        /* \"#utility.yul\":5394:5409   */\n      revert\n        /* \"#utility.yul\":5421:5523   */\n    tag_88:\n      0x00\n        /* \"#utility.yul\":5513:5515   */\n      0x1f\n        /* \"#utility.yul\":5509:5516   */\n      not\n        /* \"#utility.yul\":5504:5506   */\n      0x1f\n        /* \"#utility.yul\":5497:5502   */\n      dup4\n        /* \"#utility.yul\":5493:5507   */\n      add\n        /* \"#utility.yul\":5489:5517   */\n      and\n        /* \"#utility.yul\":5479:5517   */\n      swap1\n      pop\n        /* \"#utility.yul\":5469:5523   */\n      swap2\n      swap1\n      pop\n      jump\t// out\n        /* \"#utility.yul\":5529:5651   */\n    tag_70:\n        /* \"#utility.yul\":5602:5626   */\n      tag_126\n        /* \"#utility.yul\":5620:5625   */\n      dup2\n        /* \"#utility.yul\":5602:5626   */\n      tag_95\n      jump\t// in\n    tag_126:\n        /* \"#utility.yul\":5595:5600   */\n      dup2\n        /* \"#utility.yul\":5592:5627   */\n      eq\n        /* \"#utility.yul\":5582:5584   */\n      tag_127\n      jumpi\n        /* \"#utility.yul\":5641:5642   */\n      0x00\n        /* \"#utility.yul\":5638:5639   */\n      dup1\n        /* \"#utility.yul\":5631:5643   */\n      revert\n        /* \"#utility.yul\":5582:5584   */\n    tag_127:\n        /* \"#utility.yul\":5572:5651   */\n      pop\n      jump\t// out\n\n    auxdata: 0xa2646970667358221220faec2bc2248f1f65dc15f68a3cf7d87e5ce30da3213223e73ed7f1fbda30ee5264736f6c63430008000033\n}\n",
				"bytecode": {
					"linkReferences": {},
					"object": "608060405234801561001057600080fd5b50610769806100206000396000f3fe608060405234801561001057600080fd5b50600436106100415760003560e01c806310a7fd7b146100465780639bcba5dc14610077578063bae78d7b14610093575b600080fd5b610060600480360381019061005b91906104b1565b6100c4565b60405161006e929190610562565b60405180910390f35b610091600480360381019061008c919061045d565b610180565b005b6100ad60048036038101906100a891906104b1565b6101ed565b6040516100bb929190610562565b60405180910390f35b600081815481106100d457600080fd5b90600052602060002090600202016000915090508060000180546100f79061067b565b80601f01602080910402602001604051908101604052809291908181526020018280546101239061067b565b80156101705780601f1061014557610100808354040283529160200191610170565b820191906000526020600020905b81548152906001019060200180831161015357829003601f168201915b5050505050908060010154905082565b6000604051806040016040528084815260200183815250908060018154018082558091505060019003906000526020600020906002020160009091909190915060008201518160000190805190602001906101dc92919061033d565b506020820151816001015550505050565b6060600080805490508310610237576040517f08c379a000000000000000000000000000000000000000000000000000000000815260040161022e90610592565b60405180910390fd5b6000808481548110610272577f4e487b7100000000000000000000000000000000000000000000000000000000600052603260045260246000fd5b906000526020600020906002020160405180604001604052908160008201805461029b9061067b565b80601f01602080910402602001604051908101604052809291908181526020018280546102c79061067b565b80156103145780601f106102e957610100808354040283529160200191610314565b820191906000526020600020905b8154815290600101906020018083116102f757829003601f168201915b505050505081526020016001820154815250509050806000015181602001519250925050915091565b8280546103499061067b565b90600052602060002090601f01602090048101928261036b57600085556103b2565b82601f1061038457805160ff19168380011785556103b2565b828001600101855582156103b2579182015b828111156103b1578251825591602001919060010190610396565b5b5090506103bf91906103c3565b5090565b5b808211156103dc5760008160009055506001016103c4565b5090565b60006103f36103ee846105e3565b6105b2565b90508281526020810184848401111561040b57600080fd5b610416848285610639565b509392505050565b600082601f83011261042f57600080fd5b813561043f8482602086016103e0565b91505092915050565b6000813590506104578161071c565b92915050565b6000806040838503121561047057600080fd5b600083013567ffffffffffffffff81111561048a57600080fd5b6104968582860161041e565b92505060206104a785828601610448565b9150509250929050565b6000602082840312156104c357600080fd5b60006104d184828501610448565b91505092915050565b60006104e582610613565b6104ef818561061e565b93506104ff818560208601610648565b6105088161070b565b840191505092915050565b600061052060138361061e565b91507f496e646578206f7574206f6620626f756e6473000000000000000000000000006000830152602082019050919050565b61055c8161062f565b82525050565b6000604082019050818103600083015261057c81856104da565b905061058b6020830184610553565b9392505050565b600060208201905081810360008301526105ab81610513565b9050919050565b6000604051905081810181811067ffffffffffffffff821117156105d9576105d86106dc565b5b8060405250919050565b600067ffffffffffffffff8211156105fe576105fd6106dc565b5b601f19601f8301169050602081019050919050565b600081519050919050565b600082825260208201905092915050565b6000819050919050565b82818337600083830152505050565b60005b8381101561066657808201518184015260208101905061064b565b83811115610675576000848401525b50505050565b6000600282049050600182168061069357607f821691505b602082108114156106a7576106a66106ad565b5b50919050565b7f4e487b7100000000000000000000000000000000000000000000000000000000600052602260045260246000fd5b7f4e487b7100000000000000000000000000000000000000000000000000000000600052604160045260246000fd5b6000601f19601f8301169050919050565b6107258161062f565b811461073057600080fd5b5056fea2646970667358221220faec2bc2248f1f65dc15f68a3cf7d87e5ce30da3213223e73ed7f1fbda30ee5264736f6c63430008000033",
					"opcodes": "PUSH1 0x80 PUSH1 0x40 MSTORE CALLVALUE DUP1 ISZERO PUSH2 0x10 JUMPI PUSH1 0x0 DUP1 REVERT JUMPDEST POP PUSH2 0x769 DUP1 PUSH2 0x20 PUSH1 0x0 CODECOPY PUSH1 0x0 RETURN INVALID PUSH1 0x80 PUSH1 0x40 MSTORE CALLVALUE DUP1 ISZERO PUSH2 0x10 JUMPI PUSH1 0x0 DUP1 REVERT JUMPDEST POP PUSH1 0x4 CALLDATASIZE LT PUSH2 0x41 JUMPI PUSH1 0x0 CALLDATALOAD PUSH1 0xE0 SHR DUP1 PUSH4 0x10A7FD7B EQ PUSH2 0x46 JUMPI DUP1 PUSH4 0x9BCBA5DC EQ PUSH2 0x77 JUMPI DUP1 PUSH4 0xBAE78D7B EQ PUSH2 0x93 JUMPI JUMPDEST PUSH1 0x0 DUP1 REVERT JUMPDEST PUSH2 0x60 PUSH1 0x4 DUP1 CALLDATASIZE SUB DUP2 ADD SWAP1 PUSH2 0x5B SWAP2 SWAP1 PUSH2 0x4B1 JUMP JUMPDEST PUSH2 0xC4 JUMP JUMPDEST PUSH1 0x40 MLOAD PUSH2 0x6E SWAP3 SWAP2 SWAP1 PUSH2 0x562 JUMP JUMPDEST PUSH1 0x40 MLOAD DUP1 SWAP2 SUB SWAP1 RETURN JUMPDEST PUSH2 0x91 PUSH1 0x4 DUP1 CALLDATASIZE SUB DUP2 ADD SWAP1 PUSH2 0x8C SWAP2 SWAP1 PUSH2 0x45D JUMP JUMPDEST PUSH2 0x180 JUMP JUMPDEST STOP JUMPDEST PUSH2 0xAD PUSH1 0x4 DUP1 CALLDATASIZE SUB DUP2 ADD SWAP1 PUSH2 0xA8 SWAP2 SWAP1 PUSH2 0x4B1 JUMP JUMPDEST PUSH2 0x1ED JUMP JUMPDEST PUSH1 0x40 MLOAD PUSH2 0xBB SWAP3 SWAP2 SWAP1 PUSH2 0x562 JUMP JUMPDEST PUSH1 0x40 MLOAD DUP1 SWAP2 SUB SWAP1 RETURN JUMPDEST PUSH1 0x0 DUP2 DUP2 SLOAD DUP2 LT PUSH2 0xD4 JUMPI PUSH1 0x0 DUP1 REVERT JUMPDEST SWAP1 PUSH1 0x0 MSTORE PUSH1 0x20 PUSH1 0x0 KECCAK256 SWAP1 PUSH1 0x2 MUL ADD PUSH1 0x0 SWAP2 POP SWAP1 POP DUP1 PUSH1 0x0 ADD DUP1 SLOAD PUSH2 0xF7 SWAP1 PUSH2 0x67B JUMP JUMPDEST DUP1 PUSH1 0x1F ADD PUSH1 0x20 DUP1 SWAP2 DIV MUL PUSH1 0x20 ADD PUSH1 0x40 MLOAD SWAP1 DUP2 ADD PUSH1 0x40 MSTORE DUP1 SWAP3 SWAP2 SWAP1 DUP2 DUP2 MSTORE PUSH1 0x20 ADD DUP3 DUP1 SLOAD PUSH2 0x123 SWAP1 PUSH2 0x67B JUMP JUMPDEST DUP1 ISZERO PUSH2 0x170 JUMPI DUP1 PUSH1 0x1F LT PUSH2 0x145 JUMPI PUSH2 0x100 DUP1 DUP4 SLOAD DIV MUL DUP4 MSTORE SWAP2 PUSH1 0x20 ADD SWAP2 PUSH2 0x170 JUMP JUMPDEST DUP3 ADD SWAP2 SWAP1 PUSH1 0x0 MSTORE PUSH1 0x20 PUSH1 0x0 KECCAK256 SWAP1 JUMPDEST DUP2 SLOAD DUP2 MSTORE SWAP1 PUSH1 0x1 ADD SWAP1 PUSH1 0x20 ADD DUP1 DUP4 GT PUSH2 0x153 JUMPI DUP3 SWAP1 SUB PUSH1 0x1F AND DUP3 ADD SWAP2 JUMPDEST POP POP POP POP POP SWAP1 DUP1 PUSH1 0x1 ADD SLOAD SWAP1 POP DUP3 JUMP JUMPDEST PUSH1 0x0 PUSH1 0x40 MLOAD DUP1 PUSH1 0x40 ADD PUSH1 0x40 MSTORE DUP1 DUP5 DUP2 MSTORE PUSH1 0x20 ADD DUP4 DUP2 MSTORE POP SWAP1 DUP1 PUSH1 0x1 DUP2 SLOAD ADD DUP1 DUP3 SSTORE DUP1 SWAP2 POP POP PUSH1 0x1 SWAP1 SUB SWAP1 PUSH1 0x0 MSTORE PUSH1 0x20 PUSH1 0x0 KECCAK256 SWAP1 PUSH1 0x2 MUL ADD PUSH1 0x0 SWAP1 SWAP2 SWAP1 SWAP2 SWAP1 SWAP2 POP PUSH1 0x0 DUP3 ADD MLOAD DUP2 PUSH1 0x0 ADD SWAP1 DUP1 MLOAD SWAP1 PUSH1 0x20 ADD SWAP1 PUSH2 0x1DC SWAP3 SWAP2 SWAP1 PUSH2 0x33D JUMP JUMPDEST POP PUSH1 0x20 DUP3 ADD MLOAD DUP2 PUSH1 0x1 ADD SSTORE POP POP POP POP JUMP JUMPDEST PUSH1 0x60 PUSH1 0x0 DUP1 DUP1 SLOAD SWAP1 POP DUP4 LT PUSH2 0x237 JUMPI PUSH1 0x40 MLOAD PUSH32 0x8C379A000000000000000000000000000000000000000000000000000000000 DUP2 MSTORE PUSH1 0x4 ADD PUSH2 0x22E SWAP1 PUSH2 0x592 JUMP JUMPDEST PUSH1 0x40 MLOAD DUP1 SWAP2 SUB SWAP1 REVERT JUMPDEST PUSH1 0x0 DUP1 DUP5 DUP2 SLOAD DUP2 LT PUSH2 0x272 JUMPI PUSH32 0x4E487B7100000000000000000000000000000000000000000000000000000000 PUSH1 0x0 MSTORE PUSH1 0x32 PUSH1 0x4 MSTORE PUSH1 0x24 PUSH1 0x0 REVERT JUMPDEST SWAP1 PUSH1 0x0 MSTORE PUSH1 0x20 PUSH1 0x0 KECCAK256 SWAP1 PUSH1 0x2 MUL ADD PUSH1 0x40 MLOAD DUP1 PUSH1 0x40 ADD PUSH1 0x40 MSTORE SWAP1 DUP2 PUSH1 0x0 DUP3 ADD DUP1 SLOAD PUSH2 0x29B SWAP1 PUSH2 0x67B JUMP JUMPDEST DUP1 PUSH1 0x1F ADD PUSH1 0x20 DUP1 SWAP2 DIV MUL PUSH1 0x20 ADD PUSH1 0x40 MLOAD SWAP1 DUP2 ADD PUSH1 0x40 MSTORE DUP1 SWAP3 SWAP2 SWAP1 DUP2 DUP2 MSTORE PUSH1 0x20 ADD DUP3 DUP1 SLOAD PUSH2 0x2C7 SWAP1 PUSH2 0x67B JUMP JUMPDEST DUP1 ISZERO PUSH2 0x314 JUMPI DUP1 PUSH1 0x1F LT PUSH2 0x2E9 JUMPI PUSH2 0x100 DUP1 DUP4 SLOAD DIV MUL DUP4 MSTORE SWAP2 PUSH1 0x20 ADD SWAP2 PUSH2 0x314 JUMP JUMPDEST DUP3 ADD SWAP2 SWAP1 PUSH1 0x0 MSTORE PUSH1 0x20 PUSH1 0x0 KECCAK256 SWAP1 JUMPDEST DUP2 SLOAD DUP2 MSTORE SWAP1 PUSH1 0x1 ADD SWAP1 PUSH1 0x20 ADD DUP1 DUP4 GT PUSH2 0x2F7 JUMPI DUP3 SWAP1 SUB PUSH1 0x1F AND DUP3 ADD SWAP2 JUMPDEST POP POP POP POP POP DUP2 MSTORE PUSH1 0x20 ADD PUSH1 0x1 DUP3 ADD SLOAD DUP2 MSTORE POP POP SWAP1 POP DUP1 PUSH1 0x0 ADD MLOAD DUP2 PUSH1 0x20 ADD MLOAD SWAP3 POP SWAP3 POP POP SWAP2 POP SWAP2 JUMP JUMPDEST DUP3 DUP1 SLOAD PUSH2 0x349 SWAP1 PUSH2 0x67B JUMP JUMPDEST SWAP1 PUSH1 0x0 MSTORE PUSH1 0x20 PUSH1 0x0 KECCAK256 SWAP1 PUSH1 0x1F ADD PUSH1 0x20 SWAP1 DIV DUP2 ADD SWAP3 DUP3 PUSH2 0x36B JUMPI PUSH1 0x0 DUP6 SSTORE PUSH2 0x3B2 JUMP JUMPDEST DUP3 PUSH1 0x1F LT PUSH2 0x384 JUMPI DUP1 MLOAD PUSH1 0xFF NOT AND DUP4 DUP1 ADD OR DUP6 SSTORE PUSH2 0x3B2 JUMP JUMPDEST DUP3 DUP1 ADD PUSH1 0x1 ADD DUP6 SSTORE DUP3 ISZERO PUSH2 0x3B2 JUMPI SWAP2 DUP3 ADD JUMPDEST DUP3 DUP2 GT ISZERO PUSH2 0x3B1 JUMPI DUP3 MLOAD DUP3 SSTORE SWAP2 PUSH1 0x20 ADD SWAP2 SWAP1 PUSH1 0x1 ADD SWAP1 PUSH2 0x396 JUMP JUMPDEST JUMPDEST POP SWAP1 POP PUSH2 0x3BF SWAP2 SWAP1 PUSH2 0x3C3 JUMP JUMPDEST POP SWAP1 JUMP JUMPDEST JUMPDEST DUP1 DUP3 GT ISZERO PUSH2 0x3DC JUMPI PUSH1 0x0 DUP2 PUSH1 0x0 SWAP1 SSTORE POP PUSH1 0x1 ADD PUSH2 0x3C4 JUMP JUMPDEST POP SWAP1 JUMP JUMPDEST PUSH1 0x0 PUSH2 0x3F3 PUSH2 0x3EE DUP5 PUSH2 0x5E3 JUMP JUMPDEST PUSH2 0x5B2 JUMP JUMPDEST SWAP1 POP DUP3 DUP2 MSTORE PUSH1 0x20 DUP2 ADD DUP5 DUP5 DUP5 ADD GT ISZERO PUSH2 0x40B JUMPI PUSH1 0x0 DUP1 REVERT JUMPDEST PUSH2 0x416 DUP5 DUP3 DUP6 PUSH2 0x639 JUMP JUMPDEST POP SWAP4 SWAP3 POP POP POP JUMP JUMPDEST PUSH1 0x0 DUP3 PUSH1 0x1F DUP4 ADD SLT PUSH2 0x42F JUMPI PUSH1 0x0 DUP1 REVERT JUMPDEST DUP2 CALLDATALOAD PUSH2 0x43F DUP5 DUP3 PUSH1 0x20 DUP7 ADD PUSH2 0x3E0 JUMP JUMPDEST SWAP2 POP POP SWAP3 SWAP2 POP POP JUMP JUMPDEST PUSH1 0x0 DUP2 CALLDATALOAD SWAP1 POP PUSH2 0x457 DUP2 PUSH2 0x71C JUMP JUMPDEST SWAP3 SWAP2 POP POP JUMP JUMPDEST PUSH1 0x0 DUP1 PUSH1 0x40 DUP4 DUP6 SUB SLT ISZERO PUSH2 0x470 JUMPI PUSH1 0x0 DUP1 REVERT JUMPDEST PUSH1 0x0 DUP4 ADD CALLDATALOAD PUSH8 0xFFFFFFFFFFFFFFFF DUP2 GT ISZERO PUSH2 0x48A JUMPI PUSH1 0x0 DUP1 REVERT JUMPDEST PUSH2 0x496 DUP6 DUP3 DUP7 ADD PUSH2 0x41E JUMP JUMPDEST SWAP3 POP POP PUSH1 0x20 PUSH2 0x4A7 DUP6 DUP3 DUP7 ADD PUSH2 0x448 JUMP JUMPDEST SWAP2 POP POP SWAP3 POP SWAP3 SWAP1 POP JUMP JUMPDEST PUSH1 0x0 PUSH1 0x20 DUP3 DUP5 SUB SLT ISZERO PUSH2 0x4C3 JUMPI PUSH1 0x0 DUP1 REVERT JUMPDEST PUSH1 0x0 PUSH2 0x4D1 DUP5 DUP3 DUP6 ADD PUSH2 0x448 JUMP JUMPDEST SWAP2 POP POP SWAP3 SWAP2 POP POP JUMP JUMPDEST PUSH1 0x0 PUSH2 0x4E5 DUP3 PUSH2 0x613 JUMP JUMPDEST PUSH2 0x4EF DUP2 DUP6 PUSH2 0x61E JUMP JUMPDEST SWAP4 POP PUSH2 0x4FF DUP2 DUP6 PUSH1 0x20 DUP7 ADD PUSH2 0x648 JUMP JUMPDEST PUSH2 0x508 DUP2 PUSH2 0x70B JUMP JUMPDEST DUP5 ADD SWAP2 POP POP SWAP3 SWAP2 POP POP JUMP JUMPDEST PUSH1 0x0 PUSH2 0x520 PUSH1 0x13 DUP4 PUSH2 0x61E JUMP JUMPDEST SWAP2 POP PUSH32 0x496E646578206F7574206F6620626F756E647300000000000000000000000000 PUSH1 0x0 DUP4 ADD MSTORE PUSH1 0x20 DUP3 ADD SWAP1 POP SWAP2 SWAP1 POP JUMP JUMPDEST PUSH2 0x55C DUP2 PUSH2 0x62F JUMP JUMPDEST DUP3 MSTORE POP POP JUMP JUMPDEST PUSH1 0x0 PUSH1 0x40 DUP3 ADD SWAP1 POP DUP2 DUP2 SUB PUSH1 0x0 DUP4 ADD MSTORE PUSH2 0x57C DUP2 DUP6 PUSH2 0x4DA JUMP JUMPDEST SWAP1 POP PUSH2 0x58B PUSH1 0x20 DUP4 ADD DUP5 PUSH2 0x553 JUMP JUMPDEST SWAP4 SWAP3 POP POP POP JUMP JUMPDEST PUSH1 0x0 PUSH1 0x20 DUP3 ADD SWAP1 POP DUP2 DUP2 SUB PUSH1 0x0 DUP4 ADD MSTORE PUSH2 0x5AB DUP2 PUSH2 0x513 JUMP JUMPDEST SWAP1 POP SWAP2 SWAP1 POP JUMP JUMPDEST PUSH1 0x0 PUSH1 0x40 MLOAD SWAP1 POP DUP2 DUP2 ADD DUP2 DUP2 LT PUSH8 0xFFFFFFFFFFFFFFFF DUP3 GT OR ISZERO PUSH2 0x5D9 JUMPI PUSH2 0x5D8 PUSH2 0x6DC JUMP JUMPDEST JUMPDEST DUP1 PUSH1 0x40 MSTORE POP SWAP2 SWAP1 POP JUMP JUMPDEST PUSH1 0x0 PUSH8 0xFFFFFFFFFFFFFFFF DUP3 GT ISZERO PUSH2 0x5FE JUMPI PUSH2 0x5FD PUSH2 0x6DC JUMP JUMPDEST JUMPDEST PUSH1 0x1F NOT PUSH1 0x1F DUP4 ADD AND SWAP1 POP PUSH1 0x20 DUP2 ADD SWAP1 POP SWAP2 SWAP1 POP JUMP JUMPDEST PUSH1 0x0 DUP2 MLOAD SWAP1 POP SWAP2 SWAP1 POP JUMP JUMPDEST PUSH1 0x0 DUP3 DUP3 MSTORE PUSH1 0x20 DUP3 ADD SWAP1 POP SWAP3 SWAP2 POP POP JUMP JUMPDEST PUSH1 0x0 DUP2 SWAP1 POP SWAP2 SWAP1 POP JUMP JUMPDEST DUP3 DUP2 DUP4 CALLDATACOPY PUSH1 0x0 DUP4 DUP4 ADD MSTORE POP POP POP JUMP JUMPDEST PUSH1 0x0 JUMPDEST DUP4 DUP2 LT ISZERO PUSH2 0x666 JUMPI DUP1 DUP3 ADD MLOAD DUP2 DUP5 ADD MSTORE PUSH1 0x20 DUP2 ADD SWAP1 POP PUSH2 0x64B JUMP JUMPDEST DUP4 DUP2 GT ISZERO PUSH2 0x675 JUMPI PUSH1 0x0 DUP5 DUP5 ADD MSTORE JUMPDEST POP POP POP POP JUMP JUMPDEST PUSH1 0x0 PUSH1 0x2 DUP3 DIV SWAP1 POP PUSH1 0x1 DUP3 AND DUP1 PUSH2 0x693 JUMPI PUSH1 0x7F DUP3 AND SWAP2 POP JUMPDEST PUSH1 0x20 DUP3 LT DUP2 EQ ISZERO PUSH2 0x6A7 JUMPI PUSH2 0x6A6 PUSH2 0x6AD JUMP JUMPDEST JUMPDEST POP SWAP2 SWAP1 POP JUMP JUMPDEST PUSH32 0x4E487B7100000000000000000000000000000000000000000000000000000000 PUSH1 0x0 MSTORE PUSH1 0x22 PUSH1 0x4 MSTORE PUSH1 0x24 PUSH1 0x0 REVERT JUMPDEST PUSH32 0x4E487B7100000000000000000000000000000000000000000000000000000000 PUSH1 0x0 MSTORE PUSH1 0x41 PUSH1 0x4 MSTORE PUSH1 0x24 PUSH1 0x0 REVERT JUMPDEST PUSH1 0x0 PUSH1 0x1F NOT PUSH1 0x1F DUP4 ADD AND SWAP1 POP SWAP2 SWAP1 POP JUMP JUMPDEST PUSH2 0x725 DUP2 PUSH2 0x62F JUMP JUMPDEST DUP2 EQ PUSH2 0x730 JUMPI PUSH1 0x0 DUP1 REVERT JUMPDEST POP JUMP INVALID LOG2 PUSH5 0x6970667358 0x22 SLT KECCAK256 STATICCALL 0xEC 0x2B 0xC2 0x24 DUP16 0x1F PUSH6 0xDC15F68A3CF7 0xD8 PUSH31 0x5CE30DA3213223E73ED7F1FBDA30EE5264736F6C6343000800003300000000 "
				},
				"gasEstimates": {
					"creation": {
						"codeDepositCost": "379400",
						"executionCost": "418",
						"totalCost": "379818"
					},
					"external": {
						"addEntry(string,uint256)": "infinite",
						"getEntry(uint256)": "infinite",
						"ledger(uint256)": "infinite"
					}
				},
				"methodIdentifiers": {
					"addEntry(string,uint256)": "9bcba5dc",
					"getEntry(uint256)": "bae78d7b",
					"ledger(uint256)": "10a7fd7b"
				}
			},
			"storageLayout": {
				"storage": [
					{
						"astId": 10,
						"contract": "Assignment 2/q9.sol:SimpleLedger",
						"label": "ledger",
						"offset": 0,
						"slot": "0",
						"type": "t_array(t_struct(Entry)6_storage)dyn_storage"
					}
				],
				"types": {
					"t_array(t_struct(Entry)6_storage)dyn_storage": {
						"base": "t_struct(Entry)6_storage",
						"encoding": "dynamic_array",
						"label": "struct SimpleLedger.Entry[]",
						"numberOfBytes": "32"
					},
					"t_string_storage": {
						"encoding": "bytes",
						"label": "string",
						"numberOfBytes": "32"
					},
					"t_struct(Entry)6_storage": {
						"encoding": "inplace",
						"label": "struct SimpleLedger.Entry",
						"members": [
							{
								"astId": 3,
								"contract": "Assignment 2/q9.sol:SimpleLedger",
								"label": "description",
								"offset": 0,
								"slot": "0",
								"type": "t_string_storage"
							},
							{
								"astId": 5,
								"contract": "Assignment 2/q9.sol:SimpleLedger",
								"label": "amount",
								"offset": 0,
								"slot": "1",
								"type": "t_uint256"
							}
						],
						"numberOfBytes": "64"
					},
					"t_uint256": {
						"encoding": "inplace",
						"label": "uint256",
						"numberOfBytes": "32"
					}
				}
			},
			"userdoc": {
				"kind": "user",
				"methods": {},
				"version": 1
			}
		}
	}
}