{
	"Assignment 2/q7.sol": {
		"OwnerRestricted": {
			"abi": [
				{
					"inputs": [],
					"stateMutability": "nonpayable",
					"type": "constructor"
				},
				{
					"inputs": [],
					"name": "restrictedFunction",
					"outputs": [],
					"stateMutability": "nonpayable",
					"type": "function"
				}
			],
			"devdoc": {
				"kind": "dev",
				"methods": {},
				"version": 1
			},
			"evm": {
				"assembly": "    /* \"Assignment 2/q7.sol\":57:736  contract OwnerRestricted {... */\n  mstore(0x40, 0x80)\n    /* \"Assignment 2/q7.sol\":296:417  constructor() {... */\n  callvalue\n  dup1\n  iszero\n  tag_1\n  jumpi\n  0x00\n  dup1\n  revert\ntag_1:\n  pop\n    /* \"Assignment 2/q7.sol\":360:370  msg.sender */\n  caller\n    /* \"Assignment 2/q7.sol\":352:357  owner */\n  0x00\n  dup1\n    /* \"Assignment 2/q7.sol\":352:370  owner = msg.sender */\n  0x0100\n  exp\n  dup2\n  sload\n  dup2\n  0xffffffffffffffffffffffffffffffffffffffff\n  mul\n  not\n  and\n  swap1\n  dup4\n  0xffffffffffffffffffffffffffffffffffffffff\n  and\n  mul\n  or\n  swap1\n  sstore\n  pop\n    /* \"Assignment 2/q7.sol\":57:736  contract OwnerRestricted {... */\n  dataSize(sub_0)\n  dup1\n  dataOffset(sub_0)\n  0x00\n  codecopy\n  0x00\n  return\nstop\n\nsub_0: assembly {\n        /* \"Assignment 2/q7.sol\":57:736  contract OwnerRestricted {... */\n      mstore(0x40, 0x80)\n      callvalue\n      dup1\n      iszero\n      tag_1\n      jumpi\n      0x00\n      dup1\n      revert\n    tag_1:\n      pop\n      jumpi(tag_2, lt(calldatasize, 0x04))\n      shr(0xe0, calldataload(0x00))\n      dup1\n      0x777acf37\n      eq\n      tag_3\n      jumpi\n    tag_2:\n      0x00\n      dup1\n      revert\n        /* \"Assignment 2/q7.sol\":467:674  function restrictedFunction() public onlyOwner {... */\n    tag_3:\n      tag_4\n      tag_5\n      jump\t// in\n    tag_4:\n      stop\n    tag_5:\n        /* \"Assignment 2/q7.sol\":181:186  owner */\n      0x00\n      dup1\n      sload\n      swap1\n      0x0100\n      exp\n      swap1\n      div\n      0xffffffffffffffffffffffffffffffffffffffff\n      and\n        /* \"Assignment 2/q7.sol\":167:186  msg.sender == owner */\n      0xffffffffffffffffffffffffffffffffffffffff\n      and\n        /* \"Assignment 2/q7.sol\":167:177  msg.sender */\n      caller\n        /* \"Assignment 2/q7.sol\":167:186  msg.sender == owner */\n      0xffffffffffffffffffffffffffffffffffffffff\n      and\n      eq\n        /* \"Assignment 2/q7.sol\":159:204  require(msg.sender == owner, \"Not the owner\") */\n      tag_7\n      jumpi\n      mload(0x40)\n      0x08c379a000000000000000000000000000000000000000000000000000000000\n      dup2\n      mstore\n      0x04\n      add\n      tag_8\n      swap1\n      tag_9\n      jump\t// in\n    tag_8:\n      mload(0x40)\n      dup1\n      swap2\n      sub\n      swap1\n      revert\n    tag_7:\n        /* \"Assignment 2/q7.sol\":467:674  function restrictedFunction() public onlyOwner {... */\n      jump\t// out\n        /* \"#utility.yul\":7:318   */\n    tag_12:\n      0x00\n        /* \"#utility.yul\":170:237   */\n      tag_14\n        /* \"#utility.yul\":234:236   */\n      0x0d\n        /* \"#utility.yul\":229:232   */\n      dup4\n        /* \"#utility.yul\":170:237   */\n      tag_15\n      jump\t// in\n    tag_14:\n        /* \"#utility.yul\":163:237   */\n      swap2\n      pop\n        /* \"#utility.yul\":267:282   */\n      0x4e6f7420746865206f776e657200000000000000000000000000000000000000\n        /* \"#utility.yul\":263:264   */\n      0x00\n        /* \"#utility.yul\":258:261   */\n      dup4\n        /* \"#utility.yul\":254:265   */\n      add\n        /* \"#utility.yul\":247:283   */\n      mstore\n        /* \"#utility.yul\":309:311   */\n      0x20\n        /* \"#utility.yul\":304:307   */\n      dup3\n        /* \"#utility.yul\":300:312   */\n      add\n        /* \"#utility.yul\":293:312   */\n      swap1\n      pop\n        /* \"#utility.yul\":153:318   */\n      swap2\n      swap1\n      pop\n      jump\t// out\n        /* \"#utility.yul\":324:743   */\n    tag_9:\n      0x00\n        /* \"#utility.yul\":528:530   */\n      0x20\n        /* \"#utility.yul\":517:526   */\n      dup3\n        /* \"#utility.yul\":513:531   */\n      add\n        /* \"#utility.yul\":505:531   */\n      swap1\n      pop\n        /* \"#utility.yul\":577:586   */\n      dup2\n        /* \"#utility.yul\":571:575   */\n      dup2\n        /* \"#utility.yul\":567:587   */\n      sub\n        /* \"#utility.yul\":563:564   */\n      0x00\n        /* \"#utility.yul\":552:561   */\n      dup4\n        /* \"#utility.yul\":548:565   */\n      add\n        /* \"#utility.yul\":541:588   */\n      mstore\n        /* \"#utility.yul\":605:736   */\n      tag_17\n        /* \"#utility.yul\":731:735   */\n      dup2\n        /* \"#utility.yul\":605:736   */\n      tag_12\n      jump\t// in\n    tag_17:\n        /* \"#utility.yul\":597:736   */\n      swap1\n      pop\n        /* \"#utility.yul\":495:743   */\n      swap2\n      swap1\n      pop\n      jump\t// out\n        /* \"#utility.yul\":749:918   */\n    tag_15:\n      0x00\n        /* \"#utility.yul\":867:873   */\n      dup3\n        /* \"#utility.yul\":862:865   */\n      dup3\n        /* \"#utility.yul\":855:874   */\n      mstore\n        /* \"#utility.yul\":907:911   */\n      0x20\n        /* \"#utility.yul\":902:905   */\n      dup3\n        /* \"#utility.yul\":898:912   */\n      add\n        /* \"#utility.yul\":883:912   */\n      swap1\n      pop\n        /* \"#utility.yul\":845:918   */\n      swap3\n      swap2\n      pop\n      pop\n      jump\t// out\n\n    auxdata: 0xa264697066735822122022139abf34589a27d5a89257e4a7906473ca08a815ec1c90228683d9a84d685264736f6c63430008000033\n}\n",
				"bytecode": {
					"linkReferences": {},
					"object": "608060405234801561001057600080fd5b50336000806101000a81548173ffffffffffffffffffffffffffffffffffffffff021916908373ffffffffffffffffffffffffffffffffffffffff160217905550610171806100606000396000f3fe608060405234801561001057600080fd5b506004361061002b5760003560e01c8063777acf3714610030575b600080fd5b61003861003a565b005b60008054906101000a900473ffffffffffffffffffffffffffffffffffffffff1673ffffffffffffffffffffffffffffffffffffffff163373ffffffffffffffffffffffffffffffffffffffff16146100c8576040517f08c379a00000000000000000000000000000000000000000000000000000000081526004016100bf9061010a565b60405180910390fd5b565b60006100d7600d8361012a565b91507f4e6f7420746865206f776e6572000000000000000000000000000000000000006000830152602082019050919050565b60006020820190508181036000830152610123816100ca565b9050919050565b60008282526020820190509291505056fea264697066735822122022139abf34589a27d5a89257e4a7906473ca08a815ec1c90228683d9a84d685264736f6c63430008000033",
					"opcodes": "PUSH1 0x80 PUSH1 0x40 MSTORE CALLVALUE DUP1 ISZERO PUSH2 0x10 JUMPI PUSH1 0x0 DUP1 REVERT JUMPDEST POP CALLER PUSH1 0x0 DUP1 PUSH2 0x100 EXP DUP2 SLOAD DUP2 PUSH20 0xFFFFFFFFFFFFFFFFFFFFFFFFFFFFFFFFFFFFFFFF MUL NOT AND SWAP1 DUP4 PUSH20 0xFFFFFFFFFFFFFFFFFFFFFFFFFFFFFFFFFFFFFFFF AND MUL OR SWAP1 SSTORE POP PUSH2 0x171 DUP1 PUSH2 0x60 PUSH1 0x0 CODECOPY PUSH1 0x0 RETURN INVALID PUSH1 0x80 PUSH1 0x40 MSTORE CALLVALUE DUP1 ISZERO PUSH2 0x10 JUMPI PUSH1 0x0 DUP1 REVERT JUMPDEST POP PUSH1 0x4 CALLDATASIZE LT PUSH2 0x2B JUMPI PUSH1 0x0 CALLDATALOAD PUSH1 0xE0 SHR DUP1 PUSH4 0x777ACF37 EQ PUSH2 0x30 JUMPI JUMPDEST PUSH1 0x0 DUP1 REVERT JUMPDEST PUSH2 0x38 PUSH2 0x3A JUMP JUMPDEST STOP JUMPDEST PUSH1 0x0 DUP1 SLOAD SWAP1 PUSH2 0x100 EXP SWAP1 DIV PUSH20 0xFFFFFFFFFFFFFFFFFFFFFFFFFFFFFFFFFFFFFFFF AND PUSH20 0xFFFFFFFFFFFFFFFFFFFFFFFFFFFFFFFFFFFFFFFF AND CALLER PUSH20 0xFFFFFFFFFFFFFFFFFFFFFFFFFFFFFFFFFFFFFFFF AND EQ PUSH2 0xC8 JUMPI PUSH1 0x40 MLOAD PUSH32 0x8C379A000000000000000000000000000000000000000000000000000000000 DUP2 MSTORE PUSH1 0x4 ADD PUSH2 0xBF SWAP1 PUSH2 0x10A JUMP JUMPDEST PUSH1 0x40 MLOAD DUP1 SWAP2 SUB SWAP1 REVERT JUMPDEST JUMP JUMPDEST PUSH1 0x0 PUSH2 0xD7 PUSH1 0xD DUP4 PUSH2 0x12A JUMP JUMPDEST SWAP2 POP PUSH32 0x4E6F7420746865206F776E657200000000000000000000000000000000000000 PUSH1 0x0 DUP4 ADD MSTORE PUSH1 0x20 DUP3 ADD SWAP1 POP SWAP2 SWAP1 POP JUMP JUMPDEST PUSH1 0x0 PUSH1 0x20 DUP3 ADD SWAP1 POP DUP2 DUP2 SUB PUSH1 0x0 DUP4 ADD MSTORE PUSH2 0x123 DUP2 PUSH2 0xCA JUMP JUMPDEST SWAP1 POP SWAP2 SWAP1 POP JUMP JUMPDEST PUSH1 0x0 DUP3 DUP3 MSTORE PUSH1 0x20 DUP3 ADD SWAP1 POP SWAP3 SWAP2 POP POP JUMP INVALID LOG2 PUSH5 0x6970667358 0x22 SLT KECCAK256 0x22 SGT SWAP11 0xBF CALLVALUE PC SWAP11 0x27 0xD5 0xA8 SWAP3 JUMPI 0xE4 0xA7 SWAP1 PUSH5 0x73CA08A815 0xEC SHR SWAP1 0x22 DUP7 DUP4 0xD9 0xA8 0x4D PUSH9 0x5264736F6C63430008 STOP STOP CALLER "
				},
				"gasEstimates": {
					"creation": {
						"codeDepositCost": "73800",
						"executionCost": "20989",
						"totalCost": "94789"
					},
					"external": {
						"restrictedFunction()": "1249"
					}
				},
				"methodIdentifiers": {
					"restrictedFunction()": "777acf37"
				}
			},
			"storageLayout": {
				"storage": [
					{
						"astId": 3,
						"contract": "Assignment 2/q7.sol:OwnerRestricted",
						"label": "owner",
						"offset": 0,
						"slot": "0",
						"type": "t_address"
					}
				],
				"types": {
					"t_address": {
						"encoding": "inplace",
						"label": "address",
						"numberOfBytes": "20"
					}
				}
			},
			"userdoc": {
				"kind": "user",
				"methods": {},
				"version": 1
			}
		}
	}
}